:100000000C9428010C9459010C9459010C94590139
:100010000C9459010C9459010C9459010C945901F8
:100020000C9459010C9459010C9459010C945901E8
:100030000C9459010C9459010C9459010C945901D8
:100040000C9459010C9459010C9459010C945901C8
:100050000C9459010C9459010C9459010C94F70318
:100060000C9459010C946B040C9441040C945901A8
:100070000C9459010C9459010C9459010C94590198
:100080000C9459010C9459010C9459010C94590188
:100090000C9459010C9459010C9459010C94590178
:1000A0000C9459010C9459010C9459010C94590168
:1000B0000C9459010C9459010C9459010C94590158
:1000C0000C9459010C9459010C9459010C94590148
:1000D0000C9459010C9459010C9459010C94590138
:1000E0000C9459010C94F6010C94E6010C94A002B6
:1000F0000C94C0010C9408020C9409030C94DF01C9
:100100000C9416020C94C3020C94DB010C94FA01BB
:100110000C94DA050C9456030C9412020C9404020D
:100120000C9473020C94EC010C94E3010C94FE010A
:100130000C940C020C94C5010C94AF020C94D102E7
:100140000C94F0010C94D70100000A0B02090C0D6D
:100150000E0807030401000000000000000000007A
:10016000000000000000000000000000000000008F
:10017000000000001211100000000000000000004C
:10018000000000000000000000000000000000006F
:100190002200250028002B002E003100340002012F
:1001A0000000050108010B010000210024002700C8
:1001B0002A002D0030003300010100000401070176
:1001C0000A010505050507050808080802020202DC
:1001D0000A0A0808040404040101010101010101E3
:1001E0000303030303030303040707070C0C0C0CAE
:1001F0000C0C0C0C02020202060606060606060697
:100200000B0B0B0B0B0B0B0B010210202008081023
:100210002040102040800201020108040201010276
:10022000040810204080804020100804020180044F
:1002300002018040201008040201080402010102AA
:100240000408102040800102040810204080DA05D4
:1002500011241FBECFEFD1E2DEBFCDBF00E00CBF47
:1002600012E0A0E0B2E0E2E2FCE000E00BBF02C07E
:1002700007900D92A43DB107D9F723E0A4EDB2E0B9
:1002800001C01D92AB37B207E1F711E0C8E2D1E03F
:1002900000E006C021970109802FFE010E94070699
:1002A000C732D10780E00807A9F70E94A1040C9487
:1002B0000F060C94000090E0FC01E85FFD4F2491D4
:1002C0008E539E4FFC018491882399F090E0880F13
:1002D000991FFC01E855FE4FA591B491FC01E2572E
:1002E000FE4F859194918FB7F894EC91E22BEC93AB
:1002F0008FBF089580917B00877F80937B0080E48F
:1003000080937C0080917A00806480937A00809151
:100310007A0086FDFCCF8091780090917900089555
:10032000282F30E0F901E85BFE4F9491F901E85F76
:10033000FD4F44912E533E4FF9012491222309F49D
:1003400035C0992311F191509231F8F4E92FF0E082
:100350008827E255FE4F8F4F0C940706DF01E3011B
:10036000C001D701DB01C501E601EC01F001F60196
:10037000FA01FE0104020802C5010C021202160273
:10038000809180008F7780938000E22FF0E0EE0F65
:10039000FF1FE257FE4FA591B4918FB7F894EC91EF
:1003A000611148C040954E234C938FBF08958091B2
:1003B00080008F7DE8CF80918000877FE4CF84B577
:1003C0008F7784BDE2CF84B58F7DFBCF8091B00065
:1003D0008F778093B000D9CF8091B0008F7DF9CF17
:1003E000809190008F7780939000CFCF8091900084
:1003F0008F7DF9CF80919000877FF5CF8091A0000D
:100400008F778093A000C1CF8091A0008F7DF9CF1E
:100410008091A000877FF5CF809120018F77809316
:100420002001B3CF809120018F7DF9CF80912001F1
:10043000877FF5CF4E2BB8CF3FB7F8948091DA0283
:100440009091DB02A091DC02B091DD0226B5A89B61
:1004500005C02F3F19F00196A11DB11D3FBFBA2F56
:10046000A92F982F8827BC01CD01620F711D811D16
:10047000911D42E0660F771F881F991F4A95D1F79B
:1004800008958F929F92AF92BF92CF92DF92EF9298
:10049000FF924B015C010E941C026B017C010E94D7
:1004A0001C026C197D098E099F09683E7340810505
:1004B0009105A8F321E0821A9108A108B10888EEFD
:1004C000C80E83E0D81EE11CF11C81149104A10424
:1004D000B10429F7FF90EF90DF90CF90BF90AF90DD
:1004E0009F908F900895AF92BF92CF92DF92EF923C
:1004F000FF920F931F93CF93DF936C017B018B01CE
:10050000040F151FEB015E01AE18BF08C017D1071D
:1005100059F06991D601ED91FC910190F081E02DA7
:10052000C6011995892B79F7C501DF91CF911F91EC
:100530000F91FF90EF90DF90CF90BF90AF90089514
:10054000FC01538D448D252F30E0842F90E0821BD9
:10055000930B541710F0CF96089501970895FC015E
:10056000918D828D981761F0A28DAE0FBF2FB11DB6
:100570005D968C91928D9F5F9F73928F90E008950E
:100580008FEF9FEF0895FC01918D828D981731F0C8
:10059000828DE80FF11D858D90E008958FEF9FEF1C
:1005A0000895FC01918D228D892F90E0805C9F4FF2
:1005B000821B91098F73992708958EED92E00E9416
:1005C000D10221E0892B09F420E0822F0895FC015B
:1005D000A48DA80FB92FB11DA35ABF4F2C91848DA4
:1005E00090E001968F739927848FA689B7892C9301
:1005F000A089B1898C91837080648C93938D848D54
:10060000981306C00288F389E02D80818F7D808356
:100610000895EF92FF920F931F93CF93DF93EC0116
:1006200081E0888F9B8D8C8D98131AC0E889F98999
:10063000808185FF15C09FB7F894EE89FF8960839C
:10064000E889F98980818370806480839FBF81E01D
:1006500090E0DF91CF911F910F91FF90EF9008955F
:10066000F62E0B8D10E00F5F1F4F0F731127E02E3A
:100670008C8D8E110CC00FB607FCFACFE889F98972
:10068000808185FFF5CFCE010E94E702F1CFEB8D8F
:10069000EC0FFD2FF11DE35AFF4FF0829FB7F89446
:1006A0000B8FEA89FB8980818062CFCFCF93DF9364
:1006B000EC01888D8823B9F0AA89BB89E889F9897A
:1006C0008C9185FD03C0808186FD0DC00FB607FCAF
:1006D000F7CF8C9185FFF2CF808185FFEDCFCE01E2
:1006E0000E94E702E9CFDF91CF91089580E090E08A
:1006F000892B29F00E94DD0281110E94000080E018
:1007000090E0892B49F080E090E0892B29F00E944D
:10071000000081110E94000080E090E0892B49F0E8
:1007200080E090E0892B29F00E94000081110E9456
:10073000000080E090E0892B49F080E090E0892B78
:1007400029F00E94000081110C940000089561E0DE
:1007500080E20E9490016AE070E080E090E00E94F8
:10076000410260E080E20C94900161E08AE10E9425
:1007700090018BE891E00197F1F760E08AE10E9437
:10078000900168EE73E080E090E00C944102CF931A
:10079000DF93FC0101900020E9F73197AF01481B7E
:1007A000590BBC018EED92E00E947302EC0142E015
:1007B00050E062E172E08EED92E00E9473028C0FD5
:1007C0009D1FDF91CF91089581E08093D40260E076
:1007D00088E10E94900160E089E10E94900161E05F
:1007E00080E20E94900185E192E00C94C7031F9281
:1007F0000F920FB60F9211242F933F938F939F93D5
:10080000AF93BF938091D6029091D702A091D80266
:10081000B091D9023091D50223E0230F2D3758F53E
:100820000196A11DB11D2093D5028093D60290930D
:10083000D702A093D802B093D9028091DA029091A6
:10084000DB02A091DC02B091DD020196A11DB11D79
:100850008093DA029093DB02A093DC02B093DD0276
:10086000BF91AF919F918F913F912F910F900FBEAC
:100870000F901F90189526E8230F0296A11DB11D19
:10088000D2CF1F920F920FB60F9211240BB60F9278
:100890002F933F934F935F936F937F938F939F9388
:1008A000AF93BF93EF93FF938EED92E00E94E70228
:1008B000FF91EF91BF91AF919F918F917F916F9138
:1008C0005F914F913F912F910F900BBE0F900FBEF4
:1008D0000F901F9018951F920F920FB60F92112430
:1008E0000BB60F922F938F939F93EF93FF93E0910B
:1008F000EE02F091EF028081E091F402F091F502B6
:1009000082FD1DC090818091F7028F5F8F732091CF
:10091000F802821741F0E091F702F0E0E252FD4F59
:10092000958F8093F702FF91EF919F918F912F9177
:100930000F900BBE0F900FBE0F901F9018958081E7
:10094000F2CF789484B5826084BD84B5816084BD23
:1009500085B5826085BD85B5816085BD80916E005D
:10096000816080936E00109281008091810082608E
:1009700080938100809181008160809381008091CB
:1009800080008160809380008091B10084608093BA
:10099000B1008091B00081608093B000809191009F
:1009A000826080939100809191008160809391009A
:1009B000809190008160809390008091A10082607E
:1009C0008093A1008091A10081608093A10080911B
:1009D000A00081608093A0008091210182608093BB
:1009E000210180912101816080932101809120016A
:1009F00081608093200180917A00846080937A00E6
:100A000080917A00826080937A0080917A00816080
:100A100080937A0080917A00806880937A001092A7
:100A2000C10088E10E945B0189E10E945B018AE1CB
:100A30000E945B0180E20E945B0160E088E10E940D
:100A4000900160E089E10E94900160E08AE10E94EB
:100A5000900161E080E20E949001E091EE02F0914D
:100A6000EF0282E08083E091EA02F091EB021082D3
:100A7000E091EC02F091ED028FEC80831092F6028F
:100A8000E091F202F091F30286E08083E091F002BF
:100A9000F091F102808180618083E091F002F09119
:100AA000F102808188608083E091F002F091F10290
:100AB000808180688083E091F002F091F102808172
:100AC0008F7D808384E392E00E94C7030E947A01B5
:100AD0009C019091D4022C3B82E0380784F591115F
:100AE00024C00E94E4038091D40281111BC08BE5D5
:100AF00092E00E94C7030E94A70361E088E10E9480
:100B0000900182E892E00E94C703CEE0D0E00E940C
:100B10007A018C3B9240B4F48091D402811112C0CE
:100B20000E94E4030E947603D1CF29353240DCF2E3
:100B30001092D40286E492E00E94C703D4CF992396
:100B400091F2F6CF0E94B503219709F760E088E1A2
:100B50000E94900180E992E00E94C70387E992E039
:100B60000E94C7030E94A70361E089E10E949001EF
:100B70008FEB92E00E94C703CAE0D0E00E947A01A6
:100B80008C3B924024F48091D402882349F20E9445
:100B9000B503219799F760E089E10E9490018DECFF
:100BA00092E00E94C70368EE73E080E090E00E944C
:100BB0004102B8CFEEEDF2E01382128288EE93E0AC
:100BC000A0E0B0E084839583A683B78384E092E0BD
:100BD0009183808385EC90E09587848784EC90E016
:100BE0009787868780EC90E0918B808B81EC90E0FA
:100BF000938B828B82EC90E0958B848B86EC90E0DB
:100C0000978B868B118E128E138E148E0895EE0F95
:100C1000FF1F881F8BBF0790F691E02D1994F89461
:020C2000FFCF04
:100C22000000000009037302A0025603D102AF02C2
:100C3200C3020D0A0053697374656D6120646520F7
:100C42007365677572696461642061637469766152
:100C5200646F2E0053697374656D6120696E6963F8
:100C62006961646F2E005265696E696369616E64C1
:100C72006F2073697374656D612E003D3D3D2046A2
:100C820041534520313A20436F6E74656F204173A2
:100C920063656E64656E746520302D3135203D3D8F
:100CA2003D006D6F76696D69656E746F204C310021
:100CB20066696E204C31003D3D3D20464153452042
:100CC200323A20436F6E74656F2044657363656EBC
:100CD20064656E74652031302D30203D3D3D006DE0
:100CE2006F76696D69656E746F204C320066696E4D
:040CF200204C320060
:00000001FF
